{
  "address": "0xe7f1725E7734CE288F8367e1Bb143E90bb3F0512",
  "abi": [
    {
      "inputs": [
        {
          "internalType": "contract VestedERC20",
          "name": "implementation_",
          "type": "address"
        }
      ],
      "stateMutability": "nonpayable",
      "type": "constructor"
    },
    {
      "inputs": [],
      "name": "Error_InvalidTimeRange",
      "type": "error"
    },
    {
      "anonymous": false,
      "inputs": [
        {
          "indexed": false,
          "internalType": "address",
          "name": "vestedERC0",
          "type": "address"
        }
      ],
      "name": "DeployVestedERC20",
      "type": "event"
    },
    {
      "inputs": [
        {
          "internalType": "bytes32",
          "name": "name",
          "type": "bytes32"
        },
        {
          "internalType": "bytes32",
          "name": "symbol",
          "type": "bytes32"
        },
        {
          "internalType": "uint8",
          "name": "decimals",
          "type": "uint8"
        },
        {
          "internalType": "address",
          "name": "underlying",
          "type": "address"
        },
        {
          "internalType": "uint64",
          "name": "startTimestamp",
          "type": "uint64"
        },
        {
          "internalType": "uint64",
          "name": "endTimestamp",
          "type": "uint64"
        }
      ],
      "name": "createVestedERC20",
      "outputs": [
        {
          "internalType": "contract VestedERC20",
          "name": "",
          "type": "address"
        }
      ],
      "stateMutability": "nonpayable",
      "type": "function"
    },
    {
      "inputs": [],
      "name": "implementation",
      "outputs": [
        {
          "internalType": "contract VestedERC20",
          "name": "",
          "type": "address"
        }
      ],
      "stateMutability": "view",
      "type": "function"
    }
  ],
  "transactionHash": "0x844326ee1694ec01ba059ec767c1be7229fce4049e6bbd752da405d81e98b5f7",
  "args": [
    "0x5FbDB2315678afecb367f032d93F642f64180aa3"
  ],
  "numDeployments": 1,
  "solcInputHash": "0501e3a4d2f11f6c20bcd3ad04935b9c",
  "bytecode": "0x60a060405234801561001057600080fd5b5060405161043438038061043483398101604081905261002f91610040565b6001600160a01b0316608052610070565b60006020828403121561005257600080fd5b81516001600160a01b038116811461006957600080fd5b9392505050565b6080516103a3610091600039600081816040015261012101526103a36000f3fe608060405234801561001057600080fd5b50600436106100365760003560e01c80635c60da1b1461003b578063e74b46901461007e575b600080fd5b6100627f000000000000000000000000000000000000000000000000000000000000000081565b6040516001600160a01b03909116815260200160405180910390f35b61006261008c3660046102f1565b60008267ffffffffffffffff168267ffffffffffffffff16116100c257604051636415fd3d60e01b815260040160405180910390fd5b60408051606580825260a08201909252600091602082018180368337019050509050876020820152866040820152856060820153606085901b606182015260c084811b607583015283901b607d82015260006101476001600160a01b037f00000000000000000000000000000000000000000000000000000000000000001683610192565b6040516001600160a01b03821681529091507f6f8b092794fb852ed872e50a4208c05f981b5c30cf46edb60726de0538a14dcf9060200160405180910390a198975050505050505050565b8051604051613d6160f01b8152603a820160f081811b6002848101919091526680600b3d3981f360c81b600485015264363d3d376160d81b600b8501528401901b6010830181905268603836393d3d3d366160b81b6012840152601b83015262013d7360e81b601d830152606085901b6020808401919091526e5af43d82803e903d91603657fd5bf360881b60348401526000939260458401929186019084604382015b602082106102555783518152602093840193601f199092019101610236565b835160001960208490036101000a0119908116825260f088901b91830191825286846000f098506001600160a01b0389166102c65760405162461bcd60e51b815260206004820152600d60248201526c18dc99585d194819985a5b1959609a1b604482015260640160405180910390fd5b505050505050505092915050565b803567ffffffffffffffff811681146102ec57600080fd5b919050565b60008060008060008060c0878903121561030a57600080fd5b8635955060208701359450604087013560ff8116811461032957600080fd5b935060608701356001600160a01b038116811461034557600080fd5b9250610353608088016102d4565b915061036160a088016102d4565b9050929550929550929556fea2646970667358221220d26fc34c3548a9dc6531a52d65d5dec01f7f4745960460fa170c0f7a19b9ed8b64736f6c634300080b0033",
  "devdoc": {
    "author": "zefram.eth",
    "kind": "dev",
    "methods": {
      "createVestedERC20(bytes32,bytes32,uint8,address,uint64,uint64)": {
        "details": "Uses a modified minimal proxy contract that stores immutable parameters in code and passes them in through calldata. See ClonesWithCallData.",
        "params": {
          "decimals": "The number of decimals used by the VestedERC20 token",
          "endTimestamp": "The end time of the vest, must be greater than startTimestamp, Unix timestamp in seconds",
          "name": "The name of the VestedERC20 token",
          "startTimestamp": "The start time of the vest, Unix timestamp in seconds",
          "symbol": "The symbol of the VestedERC20 token",
          "underlying": "The ERC20 token that is vested"
        },
        "returns": {
          "_0": "The created VestedERC20 contract"
        }
      }
    },
    "title": "VestedERC20Factory",
    "version": 1
  },
  "userdoc": {
    "errors": {
      "Error_InvalidTimeRange()": [
        {
          "notice": "----------------------------------------------------------------------- Errors -----------------------------------------------------------------------"
        }
      ]
    },
    "events": {
      "DeployVestedERC20(address)": {
        "notice": "----------------------------------------------------------------------- Events -----------------------------------------------------------------------"
      }
    },
    "kind": "user",
    "methods": {
      "createVestedERC20(bytes32,bytes32,uint8,address,uint64,uint64)": {
        "notice": "Creates a VestedERC20 contract"
      },
      "implementation()": {
        "notice": "The VestedERC20 used as the template for all clones created"
      }
    },
    "notice": "Factory for deploying VestedERC20 contracts cheaply",
    "version": 1
  },
  "storageLayout": {
    "storage": [],
    "types": null
  }
}