{
  "address": "0x5FbDB2315678afecb367f032d93F642f64180aa3",
  "abi": [
    {
      "inputs": [],
      "name": "Error_Wrap_AmountTooLarge",
      "type": "error"
    },
    {
      "inputs": [],
      "name": "Error_Wrap_VestOver",
      "type": "error"
    },
    {
      "anonymous": false,
      "inputs": [
        {
          "indexed": true,
          "internalType": "address",
          "name": "owner",
          "type": "address"
        },
        {
          "indexed": true,
          "internalType": "address",
          "name": "spender",
          "type": "address"
        },
        {
          "indexed": false,
          "internalType": "uint256",
          "name": "amount",
          "type": "uint256"
        }
      ],
      "name": "Approval",
      "type": "event"
    },
    {
      "anonymous": false,
      "inputs": [
        {
          "indexed": true,
          "internalType": "address",
          "name": "holder",
          "type": "address"
        },
        {
          "indexed": true,
          "internalType": "address",
          "name": "recipient",
          "type": "address"
        },
        {
          "indexed": false,
          "internalType": "uint256",
          "name": "redeemedAmount",
          "type": "uint256"
        }
      ],
      "name": "Redeem",
      "type": "event"
    },
    {
      "anonymous": false,
      "inputs": [
        {
          "indexed": true,
          "internalType": "address",
          "name": "from",
          "type": "address"
        },
        {
          "indexed": true,
          "internalType": "address",
          "name": "to",
          "type": "address"
        },
        {
          "indexed": false,
          "internalType": "uint256",
          "name": "amount",
          "type": "uint256"
        }
      ],
      "name": "Transfer",
      "type": "event"
    },
    {
      "anonymous": false,
      "inputs": [
        {
          "indexed": true,
          "internalType": "address",
          "name": "recipient",
          "type": "address"
        },
        {
          "indexed": false,
          "internalType": "uint256",
          "name": "wrappedAmount",
          "type": "uint256"
        },
        {
          "indexed": false,
          "internalType": "uint256",
          "name": "underlyingAmount",
          "type": "uint256"
        }
      ],
      "name": "Wrap",
      "type": "event"
    },
    {
      "inputs": [
        {
          "internalType": "address",
          "name": "",
          "type": "address"
        },
        {
          "internalType": "address",
          "name": "",
          "type": "address"
        }
      ],
      "name": "allowance",
      "outputs": [
        {
          "internalType": "uint256",
          "name": "",
          "type": "uint256"
        }
      ],
      "stateMutability": "view",
      "type": "function"
    },
    {
      "inputs": [
        {
          "internalType": "address",
          "name": "spender",
          "type": "address"
        },
        {
          "internalType": "uint256",
          "name": "amount",
          "type": "uint256"
        }
      ],
      "name": "approve",
      "outputs": [
        {
          "internalType": "bool",
          "name": "",
          "type": "bool"
        }
      ],
      "stateMutability": "nonpayable",
      "type": "function"
    },
    {
      "inputs": [
        {
          "internalType": "address",
          "name": "",
          "type": "address"
        }
      ],
      "name": "balanceOf",
      "outputs": [
        {
          "internalType": "uint256",
          "name": "",
          "type": "uint256"
        }
      ],
      "stateMutability": "view",
      "type": "function"
    },
    {
      "inputs": [
        {
          "internalType": "address",
          "name": "",
          "type": "address"
        }
      ],
      "name": "claimedUnderlyingAmount",
      "outputs": [
        {
          "internalType": "uint256",
          "name": "",
          "type": "uint256"
        }
      ],
      "stateMutability": "view",
      "type": "function"
    },
    {
      "inputs": [],
      "name": "decimals",
      "outputs": [
        {
          "internalType": "uint8",
          "name": "_decimals",
          "type": "uint8"
        }
      ],
      "stateMutability": "pure",
      "type": "function"
    },
    {
      "inputs": [],
      "name": "endTimestamp",
      "outputs": [
        {
          "internalType": "uint64",
          "name": "_endTimestamp",
          "type": "uint64"
        }
      ],
      "stateMutability": "pure",
      "type": "function"
    },
    {
      "inputs": [
        {
          "internalType": "address",
          "name": "holder",
          "type": "address"
        }
      ],
      "name": "getRedeemableAmount",
      "outputs": [
        {
          "internalType": "uint256",
          "name": "",
          "type": "uint256"
        }
      ],
      "stateMutability": "view",
      "type": "function"
    },
    {
      "inputs": [],
      "name": "name",
      "outputs": [
        {
          "internalType": "string",
          "name": "",
          "type": "string"
        }
      ],
      "stateMutability": "pure",
      "type": "function"
    },
    {
      "inputs": [
        {
          "internalType": "address",
          "name": "recipient",
          "type": "address"
        }
      ],
      "name": "redeem",
      "outputs": [
        {
          "internalType": "uint256",
          "name": "redeemedAmount",
          "type": "uint256"
        }
      ],
      "stateMutability": "nonpayable",
      "type": "function"
    },
    {
      "inputs": [],
      "name": "startTimestamp",
      "outputs": [
        {
          "internalType": "uint64",
          "name": "_startTimestamp",
          "type": "uint64"
        }
      ],
      "stateMutability": "pure",
      "type": "function"
    },
    {
      "inputs": [],
      "name": "symbol",
      "outputs": [
        {
          "internalType": "string",
          "name": "",
          "type": "string"
        }
      ],
      "stateMutability": "pure",
      "type": "function"
    },
    {
      "inputs": [],
      "name": "totalSupply",
      "outputs": [
        {
          "internalType": "uint256",
          "name": "",
          "type": "uint256"
        }
      ],
      "stateMutability": "view",
      "type": "function"
    },
    {
      "inputs": [
        {
          "internalType": "address",
          "name": "to",
          "type": "address"
        },
        {
          "internalType": "uint256",
          "name": "amount",
          "type": "uint256"
        }
      ],
      "name": "transfer",
      "outputs": [
        {
          "internalType": "bool",
          "name": "",
          "type": "bool"
        }
      ],
      "stateMutability": "nonpayable",
      "type": "function"
    },
    {
      "inputs": [
        {
          "internalType": "address",
          "name": "from",
          "type": "address"
        },
        {
          "internalType": "address",
          "name": "to",
          "type": "address"
        },
        {
          "internalType": "uint256",
          "name": "amount",
          "type": "uint256"
        }
      ],
      "name": "transferFrom",
      "outputs": [
        {
          "internalType": "bool",
          "name": "",
          "type": "bool"
        }
      ],
      "stateMutability": "nonpayable",
      "type": "function"
    },
    {
      "inputs": [],
      "name": "underlying",
      "outputs": [
        {
          "internalType": "address",
          "name": "_underlying",
          "type": "address"
        }
      ],
      "stateMutability": "pure",
      "type": "function"
    },
    {
      "inputs": [
        {
          "internalType": "uint256",
          "name": "underlyingAmount",
          "type": "uint256"
        },
        {
          "internalType": "address",
          "name": "recipient",
          "type": "address"
        }
      ],
      "name": "wrap",
      "outputs": [
        {
          "internalType": "uint256",
          "name": "wrappedTokenAmount",
          "type": "uint256"
        }
      ],
      "stateMutability": "nonpayable",
      "type": "function"
    }
  ],
  "transactionHash": "0xbc502035568ee0fbb2108776e641d5b488470b7d9a1820b5fc8ee85d469acbcc",
  "args": [],
  "numDeployments": 1,
  "solcInputHash": "0501e3a4d2f11f6c20bcd3ad04935b9c",
  "bytecode": "0x608060405234801561001057600080fd5b50610d75806100206000396000f3fe608060405234801561001057600080fd5b50600436106101005760003560e01c80636f307dc311610097578063a85adeab11610066578063a85adeab1461022b578063a9059cbb1461024c578063dd62ed3e1461025f578063e6fd48bc1461028a57600080fd5b80636f307dc3146101d057806370a08231146101f057806395a2251f1461021057806395d89b411461022357600080fd5b806318160ddd116100d357806318160ddd1461018757806323b872dd14610190578063313ce567146101a3578063619cfc35146101bd57600080fd5b806306fdde0314610105578063095ea7b3146101235780630daf3df01461014657806313bac82014610174575b600080fd5b61010d610292565b60405161011a9190610b71565b60405180910390f35b610136610131366004610be2565b6102c6565b604051901515815260200161011a565b610166610154366004610c0c565b60036020526000908152604090205481565b60405190815260200161011a565b610166610182366004610c27565b610333565b61016660005481565b61013661019e366004610c53565b61049f565b6101ab6105fb565b60405160ff909116815260200161011a565b6101666101cb366004610c0c565b610613565b6101d8610637565b6040516001600160a01b03909116815260200161011a565b6101666101fe366004610c0c565b60016020526000908152604090205481565b61016661021e366004610c0c565b61064f565b61010d6106f5565b61023361071a565b60405167ffffffffffffffff909116815260200161011a565b61013661025a366004610be2565b610732565b61016661026d366004610c8f565b600260209081526000928352604080842090915290825290205481565b610233610811565b6060600061029e610829565b60408051823560208201819052929350015b6040516020818303038152906040529250505090565b3360008181526002602090815260408083206001600160a01b038716808552925280832085905551919290917f8c5be1e5ebec7d5bd14f71427d1e84f3dd0314c0f7b2291e5b200ac8c7c3b925906103219086815260200190565b60405180910390a35060015b92915050565b60008061033e610811565b67ffffffffffffffff169050600061035461071a565b67ffffffffffffffff16905080421061038057604051634bb83d4360e01b815260040160405180910390fd5b61038a8282610ccf565b61039690600019610ce6565b85106103b5576040516303642f3d60e51b815260040160405180910390fd5b814210610423576103c64282610ccf565b6103d08383610ccf565b6103da9087610d08565b6103e49190610ce6565b92506103f08584610ccf565b6001600160a01b03851660009081526003602052604081208054909190610418908490610d27565b909155506104279050565b8492505b610431848461083a565b600061043b610637565b90506104526001600160a01b0382163330896108a4565b60408051858152602081018890526001600160a01b038716917f18a5ed48bb0a697c64a5aef8f28cec1f29ab01da27a45c5f835099781ef1ea46910160405180910390a250505092915050565b6001600160a01b038316600090815260026020908152604080832033845290915281205460001981146104fb576104d68382610ccf565b6001600160a01b03861660009081526002602090815260408083203384529091529020555b6001600160a01b03851660009081526001602090815260408083205460039092529091205461052a8583610ccf565b6001600160a01b0380891660009081526001602052604080822093909355908816815290812080548701905561056182878561093d565b9050801561059e576105738183610ccf565b6001600160a01b03808a16600090815260036020526040808220939093559089168152208054820190555b866001600160a01b0316886001600160a01b03167fddf252ad1be2c89b69c2b068fc378daa952ba7f163c4a11628f55a4df523b3ef886040516105e391815260200190565b60405180910390a360019450505050505b9392505050565b600080610606610829565b6040013560f81c92915050565b6001600160a01b03811660009081526003602052604081205461032d9083906109ec565b600080610642610829565b6041013560601c92915050565b33600081815260036020526040812054909161066b90826109ec565b91506106778282610d27565b3360009081526003602052604090205581156106ef576000610697610637565b90506106ad6001600160a01b0382168585610aab565b6040518381526001600160a01b0385169033907fd12200efa34901b99367694174c3b0d32c99585fdf37c7c26892136ddd0836d99060200160405180910390a3505b50919050565b60606000610701610829565b60408051602080840135908201819052929350016102b0565b600080610725610829565b605d013560c01c92915050565b3360009081526001602090815260408083205460039092528220546107578483610ccf565b33600090815260016020526040808220929092556001600160a01b038716815290812080548601905561078b82868561093d565b905080156107c55761079d8183610ccf565b33600090815260036020526040808220929092556001600160a01b0388168152208054820190555b6040518581526001600160a01b0387169033907fddf252ad1be2c89b69c2b068fc378daa952ba7f163c4a11628f55a4df523b3ef9060200160405180910390a350600195945050505050565b60008061081c610829565b6055013560c01c92915050565b600119368181013560f01c90030190565b8060008082825461084b9190610d27565b90915550506001600160a01b0382166000818152600160209081526040808320805486019055518481527fddf252ad1be2c89b69c2b068fc378daa952ba7f163c4a11628f55a4df523b3ef910160405180910390a35050565b60006040516323b872dd60e01b81526001600160a01b03851660048201526001600160a01b038416602482015282604482015260008060648360008a5af19150506108ee81610b2a565b6109365760405162461bcd60e51b81526020600482015260146024820152731514905394d1915497d19493d357d1905253115160621b60448201526064015b60405180910390fd5b5050505050565b600080806000198587098587029250828110838203039150508060001415610977576000841161096c57600080fd5b5082900490506105f4565b80841161098357600080fd5b60008486880960026001871981018816978890046003810283188082028403028082028403028082028403028082028403028082028403029081029092039091026000889003889004909101858311909403939093029303949094049190911702949350505050565b6000806109f7610811565b67ffffffffffffffff1690506000610a0d61071a565b67ffffffffffffffff169050814211610a2b5760009250505061032d565b804210610a5f576001600160a01b038516600090815260016020526040902054610a56908590610ccf565b9250505061032d565b83610a6a8383610ccf565b610a748442610ccf565b6001600160a01b038816600090815260016020526040902054610a979190610d08565b610aa19190610ce6565b610a569190610ccf565b600060405163a9059cbb60e01b81526001600160a01b03841660048201528260248201526000806044836000895af1915050610ae681610b2a565b610b245760405162461bcd60e51b815260206004820152600f60248201526e1514905394d1915497d19052531151608a1b604482015260640161092d565b50505050565b60003d82610b3c57806000803e806000fd5b8060208114610b54578015610b655760009250610b6a565b816000803e60005115159250610b6a565b600192505b5050919050565b600060208083528351808285015260005b81811015610b9e57858101830151858201604001528201610b82565b81811115610bb0576000604083870101525b50601f01601f1916929092016040019392505050565b80356001600160a01b0381168114610bdd57600080fd5b919050565b60008060408385031215610bf557600080fd5b610bfe83610bc6565b946020939093013593505050565b600060208284031215610c1e57600080fd5b6105f482610bc6565b60008060408385031215610c3a57600080fd5b82359150610c4a60208401610bc6565b90509250929050565b600080600060608486031215610c6857600080fd5b610c7184610bc6565b9250610c7f60208501610bc6565b9150604084013590509250925092565b60008060408385031215610ca257600080fd5b610cab83610bc6565b9150610c4a60208401610bc6565b634e487b7160e01b600052601160045260246000fd5b600082821015610ce157610ce1610cb9565b500390565b600082610d0357634e487b7160e01b600052601260045260246000fd5b500490565b6000816000190483118215151615610d2257610d22610cb9565b500290565b60008219821115610d3a57610d3a610cb9565b50019056fea264697066735822122072d91216d8babc9108f60885a8d727235d9971f34df0ff795e11aae4bc03d75064736f6c634300080b0033",
  "devdoc": {
    "author": "zefram.eth",
    "kind": "dev",
    "methods": {
      "endTimestamp()": {
        "returns": {
          "_endTimestamp": "The vest end timestamp"
        }
      },
      "getRedeemableAmount(address)": {
        "params": {
          "holder": "The wrapped token holder to query"
        },
        "returns": {
          "_0": "The amount of vested tokens redeemable"
        }
      },
      "redeem(address)": {
        "params": {
          "recipient": "The address that will receive the vested tokens"
        },
        "returns": {
          "redeemedAmount": "The amount of vested tokens redeemed"
        }
      },
      "startTimestamp()": {
        "returns": {
          "_startTimestamp": "The vest start timestamp"
        }
      },
      "underlying()": {
        "returns": {
          "_underlying": "The address of the underlying token"
        }
      },
      "wrap(uint256,address)": {
        "params": {
          "recipient": "The address that will receive the minted wrapped tokens",
          "underlyingAmount": "The amount of underlying tokens to wrap"
        },
        "returns": {
          "wrappedTokenAmount": "The amount of wrapped tokens minted"
        }
      }
    },
    "title": "VestedERC20",
    "version": 1
  },
  "userdoc": {
    "errors": {
      "Error_Wrap_VestOver()": [
        {
          "notice": "----------------------------------------------------------------------- Errors -----------------------------------------------------------------------"
        }
      ]
    },
    "events": {
      "Wrap(address,uint256,uint256)": {
        "notice": "----------------------------------------------------------------------- Events -----------------------------------------------------------------------"
      }
    },
    "kind": "user",
    "methods": {
      "claimedUnderlyingAmount(address)": {
        "notice": "The amount of underlying tokens claimed by a token holder"
      },
      "endTimestamp()": {
        "notice": "The Unix timestamp (in seconds) of the end of the vest"
      },
      "getRedeemableAmount(address)": {
        "notice": "Computes the amount of vested tokens redeemable by an account"
      },
      "redeem(address)": {
        "notice": "Allows a holder of the wrapped token to redeem the vested tokens"
      },
      "startTimestamp()": {
        "notice": "The Unix timestamp (in seconds) of the start of the vest"
      },
      "transfer(address,uint256)": {
        "notice": "The ERC20 transfer function"
      },
      "transferFrom(address,address,uint256)": {
        "notice": "The ERC20 transferFrom function"
      },
      "underlying()": {
        "notice": "The token that is vested"
      },
      "wrap(uint256,address)": {
        "notice": "Mints wrapped tokens using underlying tokens. Can only be called before the vest is over."
      }
    },
    "notice": "An ERC20 wrapper token that linearly vests an underlying token to its holders",
    "version": 1
  },
  "storageLayout": {
    "storage": [
      {
        "astId": 1232,
        "contract": "contracts/VestedERC20.sol:VestedERC20",
        "label": "totalSupply",
        "offset": 0,
        "slot": "0",
        "type": "t_uint256"
      },
      {
        "astId": 1236,
        "contract": "contracts/VestedERC20.sol:VestedERC20",
        "label": "balanceOf",
        "offset": 0,
        "slot": "1",
        "type": "t_mapping(t_address,t_uint256)"
      },
      {
        "astId": 1242,
        "contract": "contracts/VestedERC20.sol:VestedERC20",
        "label": "allowance",
        "offset": 0,
        "slot": "2",
        "type": "t_mapping(t_address,t_mapping(t_address,t_uint256))"
      },
      {
        "astId": 538,
        "contract": "contracts/VestedERC20.sol:VestedERC20",
        "label": "claimedUnderlyingAmount",
        "offset": 0,
        "slot": "3",
        "type": "t_mapping(t_address,t_uint256)"
      }
    ],
    "types": {
      "t_address": {
        "encoding": "inplace",
        "label": "address",
        "numberOfBytes": "20"
      },
      "t_mapping(t_address,t_mapping(t_address,t_uint256))": {
        "encoding": "mapping",
        "key": "t_address",
        "label": "mapping(address => mapping(address => uint256))",
        "numberOfBytes": "32",
        "value": "t_mapping(t_address,t_uint256)"
      },
      "t_mapping(t_address,t_uint256)": {
        "encoding": "mapping",
        "key": "t_address",
        "label": "mapping(address => uint256)",
        "numberOfBytes": "32",
        "value": "t_uint256"
      },
      "t_uint256": {
        "encoding": "inplace",
        "label": "uint256",
        "numberOfBytes": "32"
      }
    }
  }
}